{
  "_format": "hh-sol-artifact-1",
  "contractName": "Donorbox",
  "sourceName": "contracts/Donation.sol",
  "abi": [
    {
      "inputs": [],
      "stateMutability": "nonpayable",
      "type": "constructor"
    },
    {
      "inputs": [
        {
          "internalType": "string",
          "name": "name",
          "type": "string"
        },
        {
          "internalType": "string",
          "name": "message",
          "type": "string"
        }
      ],
      "name": "donateUs",
      "outputs": [],
      "stateMutability": "payable",
      "type": "function"
    },
    {
      "inputs": [
        {
          "internalType": "uint256",
          "name": "",
          "type": "uint256"
        }
      ],
      "name": "donors",
      "outputs": [
        {
          "internalType": "string",
          "name": "name",
          "type": "string"
        },
        {
          "internalType": "string",
          "name": "message",
          "type": "string"
        },
        {
          "internalType": "uint256",
          "name": "timestamp",
          "type": "uint256"
        },
        {
          "internalType": "address",
          "name": "from",
          "type": "address"
        }
      ],
      "stateMutability": "view",
      "type": "function"
    },
    {
      "inputs": [],
      "name": "getDonors",
      "outputs": [
        {
          "components": [
            {
              "internalType": "string",
              "name": "name",
              "type": "string"
            },
            {
              "internalType": "string",
              "name": "message",
              "type": "string"
            },
            {
              "internalType": "uint256",
              "name": "timestamp",
              "type": "uint256"
            },
            {
              "internalType": "address",
              "name": "from",
              "type": "address"
            }
          ],
          "internalType": "struct Donorbox.Donor[]",
          "name": "",
          "type": "tuple[]"
        }
      ],
      "stateMutability": "view",
      "type": "function"
    }
  ],
  "bytecode": "0x608060405234801561001057600080fd5b50336000806101000a81548173ffffffffffffffffffffffffffffffffffffffff021916908373ffffffffffffffffffffffffffffffffffffffff160217905550610c40806100606000396000f3fe6080604052600436106100345760003560e01c80633097288a146100395780634abfa1631461005557806396f300d414610095575b600080fd5b610053600480360381019061004e91906106d0565b6100c0565b005b34801561006157600080fd5b5061007c6004803603810190610077919061073c565b61025d565b60405161008c949392919061094b565b60405180910390f35b3480156100a157600080fd5b506100aa6103cd565b6040516100b79190610929565b60405180910390f35b60003411610103576040517f08c379a00000000000000000000000000000000000000000000000000000000081526004016100fa9061099e565b60405180910390fd5b60008054906101000a900473ffffffffffffffffffffffffffffffffffffffff1673ffffffffffffffffffffffffffffffffffffffff166108fc349081150290604051600060405180830381858888f19350505050158015610169573d6000803e3d6000fd5b50600160405180608001604052808481526020018381526020014281526020013373ffffffffffffffffffffffffffffffffffffffff16815250908060018154018082558091505060019003906000526020600020906004020160009091909190915060008201518160000190805190602001906101e89291906105b0565b5060208201518160010190805190602001906102059291906105b0565b506040820151816002015560608201518160030160006101000a81548173ffffffffffffffffffffffffffffffffffffffff021916908373ffffffffffffffffffffffffffffffffffffffff16021790555050505050565b6001818154811061026d57600080fd5b906000526020600020906004020160009150905080600001805461029090610af8565b80601f01602080910402602001604051908101604052809291908181526020018280546102bc90610af8565b80156103095780601f106102de57610100808354040283529160200191610309565b820191906000526020600020905b8154815290600101906020018083116102ec57829003601f168201915b50505050509080600101805461031e90610af8565b80601f016020809104026020016040519081016040528092919081815260200182805461034a90610af8565b80156103975780601f1061036c57610100808354040283529160200191610397565b820191906000526020600020905b81548152906001019060200180831161037a57829003601f168201915b5050505050908060020154908060030160009054906101000a900473ffffffffffffffffffffffffffffffffffffffff16905084565b60606001805480602002602001604051908101604052809291908181526020016000905b828210156105a7578382906000526020600020906004020160405180608001604052908160008201805461042490610af8565b80601f016020809104026020016040519081016040528092919081815260200182805461045090610af8565b801561049d5780601f106104725761010080835404028352916020019161049d565b820191906000526020600020905b81548152906001019060200180831161048057829003601f168201915b505050505081526020016001820180546104b690610af8565b80601f01602080910402602001604051908101604052809291908181526020018280546104e290610af8565b801561052f5780601f106105045761010080835404028352916020019161052f565b820191906000526020600020905b81548152906001019060200180831161051257829003601f168201915b50505050508152602001600282015481526020016003820160009054906101000a900473ffffffffffffffffffffffffffffffffffffffff1673ffffffffffffffffffffffffffffffffffffffff1673ffffffffffffffffffffffffffffffffffffffff1681525050815260200190600101906103f1565b50505050905090565b8280546105bc90610af8565b90600052602060002090601f0160209004810192826105de5760008555610625565b82601f106105f757805160ff1916838001178555610625565b82800160010185558215610625579182015b82811115610624578251825591602001919060010190610609565b5b5090506106329190610636565b5090565b5b8082111561064f576000816000905550600101610637565b5090565b6000610666610661846109e3565b6109be565b90508281526020810184848401111561067e57600080fd5b610689848285610ab6565b509392505050565b600082601f8301126106a257600080fd5b81356106b2848260208601610653565b91505092915050565b6000813590506106ca81610bf3565b92915050565b600080604083850312156106e357600080fd5b600083013567ffffffffffffffff8111156106fd57600080fd5b61070985828601610691565b925050602083013567ffffffffffffffff81111561072657600080fd5b61073285828601610691565b9150509250929050565b60006020828403121561074e57600080fd5b600061075c848285016106bb565b91505092915050565b600061077183836108a1565b905092915050565b61078281610a7a565b82525050565b61079181610a7a565b82525050565b60006107a282610a24565b6107ac8185610a47565b9350836020820285016107be85610a14565b8060005b858110156107fa57848403895281516107db8582610765565b94506107e683610a3a565b925060208a019950506001810190506107c2565b50829750879550505050505092915050565b600061081782610a2f565b6108218185610a58565b9350610831818560208601610ac5565b61083a81610bb9565b840191505092915050565b600061085082610a2f565b61085a8185610a69565b935061086a818560208601610ac5565b61087381610bb9565b840191505092915050565b600061088b601f83610a69565b915061089682610bca565b602082019050919050565b600060808301600083015184820360008601526108be828261080c565b915050602083015184820360208601526108d8828261080c565b91505060408301516108ed604086018261090b565b5060608301516109006060860182610779565b508091505092915050565b61091481610aac565b82525050565b61092381610aac565b82525050565b600060208201905081810360008301526109438184610797565b905092915050565b600060808201905081810360008301526109658187610845565b905081810360208301526109798186610845565b9050610988604083018561091a565b6109956060830184610788565b95945050505050565b600060208201905081810360008301526109b78161087e565b9050919050565b60006109c86109d9565b90506109d48282610b2a565b919050565b6000604051905090565b600067ffffffffffffffff8211156109fe576109fd610b8a565b5b610a0782610bb9565b9050602081019050919050565b6000819050602082019050919050565b600081519050919050565b600081519050919050565b6000602082019050919050565b600082825260208201905092915050565b600082825260208201905092915050565b600082825260208201905092915050565b6000610a8582610a8c565b9050919050565b600073ffffffffffffffffffffffffffffffffffffffff82169050919050565b6000819050919050565b82818337600083830152505050565b60005b83811015610ae3578082015181840152602081019050610ac8565b83811115610af2576000848401525b50505050565b60006002820490506001821680610b1057607f821691505b60208210811415610b2457610b23610b5b565b5b50919050565b610b3382610bb9565b810181811067ffffffffffffffff82111715610b5257610b51610b8a565b5b80604052505050565b7f4e487b7100000000000000000000000000000000000000000000000000000000600052602260045260246000fd5b7f4e487b7100000000000000000000000000000000000000000000000000000000600052604160045260246000fd5b6000601f19601f8301169050919050565b7f506c65617365207061792067726561746572207468616e203020657468657200600082015250565b610bfc81610aac565b8114610c0757600080fd5b5056fea2646970667358221220b2188667ed196d01c1a61cc258d09a3389c2f9c15e090707562cf4b83ce3bb2b64736f6c63430008040033",
  "linkReferences": {},
  "deployedLinkReferences": {}
}